{
	"contracts/Ex1.sol": {
		"caller": {
			"abi": [
				{
					"anonymous": false,
					"inputs": [
						{
							"indexed": false,
							"internalType": "bool",
							"name": "_success",
							"type": "bool"
						},
						{
							"indexed": false,
							"internalType": "bytes",
							"name": "_output",
							"type": "bytes"
						}
					],
					"name": "calledFunction",
					"type": "event"
				},
				{
					"inputs": [
						{
							"internalType": "address",
							"name": "_contractAddr",
							"type": "address"
						},
						{
							"internalType": "uint256",
							"name": "_num1",
							"type": "uint256"
						},
						{
							"internalType": "uint256",
							"name": "_num2",
							"type": "uint256"
						}
					],
					"name": "callMethod",
					"outputs": [],
					"stateMutability": "nonpayable",
					"type": "function"
				},
				{
					"inputs": [
						{
							"internalType": "address payable",
							"name": "_to",
							"type": "address"
						}
					],
					"name": "transferEther",
					"outputs": [],
					"stateMutability": "payable",
					"type": "function"
				}
			],
			"devdoc": {
				"kind": "dev",
				"methods": {},
				"version": 1
			},
			"evm": {
				"assembly": "    /* \"contracts/Ex1.sol\":467:1212  contract caller{... */\n  mstore(0x40, 0x80)\n  callvalue\n  dup1\n  iszero\n  tag_1\n  jumpi\n  0x00\n  dup1\n  revert\ntag_1:\n  pop\n  dataSize(sub_0)\n  dup1\n  dataOffset(sub_0)\n  0x00\n  codecopy\n  0x00\n  return\nstop\n\nsub_0: assembly {\n        /* \"contracts/Ex1.sol\":467:1212  contract caller{... */\n      mstore(0x40, 0x80)\n      jumpi(tag_1, lt(calldatasize, 0x04))\n      shr(0xe0, calldataload(0x00))\n      dup1\n      0x6b55e991\n      eq\n      tag_2\n      jumpi\n      dup1\n      0x6bca61b9\n      eq\n      tag_3\n      jumpi\n    tag_1:\n      0x00\n      dup1\n      revert\n        /* \"contracts/Ex1.sol\":575:753  function transferEther(address payable _to) public payable{... */\n    tag_2:\n      tag_4\n      0x04\n      dup1\n      calldatasize\n      sub\n      dup2\n      add\n      swap1\n      tag_5\n      swap2\n      swap1\n      tag_6\n      jump\t// in\n    tag_5:\n      tag_7\n      jump\t// in\n    tag_4:\n      stop\n        /* \"contracts/Ex1.sol\":820:1209  function callMethod(address _contractAddr,uint256 _num1, uint256 _num2) public{... */\n    tag_3:\n      callvalue\n      dup1\n      iszero\n      tag_8\n      jumpi\n      0x00\n      dup1\n      revert\n    tag_8:\n      pop\n      tag_9\n      0x04\n      dup1\n      calldatasize\n      sub\n      dup2\n      add\n      swap1\n      tag_10\n      swap2\n      swap1\n      tag_11\n      jump\t// in\n    tag_10:\n      tag_12\n      jump\t// in\n    tag_9:\n      stop\n        /* \"contracts/Ex1.sol\":575:753  function transferEther(address payable _to) public payable{... */\n    tag_7:\n        /* \"contracts/Ex1.sol\":645:657  bool success */\n      0x00\n        /* \"contracts/Ex1.sol\":662:665  _to */\n      dup2\n        /* \"contracts/Ex1.sol\":662:670  _to.call */\n      0xffffffffffffffffffffffffffffffffffffffff\n      and\n        /* \"contracts/Ex1.sol\":677:686  msg.value */\n      callvalue\n        /* \"contracts/Ex1.sol\":662:691  _to.call{value:msg.value}(\"\") */\n      mload(0x40)\n      tag_14\n      swap1\n      tag_15\n      jump\t// in\n    tag_14:\n      0x00\n      mload(0x40)\n      dup1\n      dup4\n      sub\n      dup2\n      dup6\n      dup8\n      gas\n      call\n      swap3\n      pop\n      pop\n      pop\n      returndatasize\n      dup1\n      0x00\n      dup2\n      eq\n      tag_18\n      jumpi\n      mload(0x40)\n      swap2\n      pop\n      and(add(returndatasize, 0x3f), not(0x1f))\n      dup3\n      add\n      0x40\n      mstore\n      returndatasize\n      dup3\n      mstore\n      returndatasize\n      0x00\n      0x20\n      dup5\n      add\n      returndatacopy\n      jump(tag_17)\n    tag_18:\n      0x60\n      swap2\n      pop\n    tag_17:\n      pop\n        /* \"contracts/Ex1.sol\":644:691  (bool success,) = _to.call{value:msg.value}(\"\") */\n      pop\n      swap1\n      pop\n        /* \"contracts/Ex1.sol\":710:717  success */\n      dup1\n        /* \"contracts/Ex1.sol\":702:745  require(success,\"failed to transfer ether\") */\n      tag_19\n      jumpi\n      mload(0x40)\n      0x08c379a000000000000000000000000000000000000000000000000000000000\n      dup2\n      mstore\n      0x04\n      add\n      tag_20\n      swap1\n      tag_21\n      jump\t// in\n    tag_20:\n      mload(0x40)\n      dup1\n      swap2\n      sub\n      swap1\n      revert\n    tag_19:\n        /* \"contracts/Ex1.sol\":633:753  {... */\n      pop\n        /* \"contracts/Ex1.sol\":575:753  function transferEther(address payable _to) public payable{... */\n      pop\n      jump\t// out\n        /* \"contracts/Ex1.sol\":820:1209  function callMethod(address _contractAddr,uint256 _num1, uint256 _num2) public{... */\n    tag_12:\n        /* \"contracts/Ex1.sol\":910:922  bool success */\n      0x00\n        /* \"contracts/Ex1.sol\":924:961  bytes memory outputFromCalledFunction */\n      dup1\n        /* \"contracts/Ex1.sol\":965:978  _contractAddr */\n      dup5\n        /* \"contracts/Ex1.sol\":965:983  _contractAddr.call */\n      0xffffffffffffffffffffffffffffffffffffffff\n      and\n        /* \"contracts/Ex1.sol\":1054:1059  _num1 */\n      dup5\n        /* \"contracts/Ex1.sol\":1060:1065  _num2 */\n      dup5\n        /* \"contracts/Ex1.sol\":1000:1066  abi.encodeWithSignature(\"addNumber2(uint256,uint256)\",_num1,_num2) */\n      add(0x24, mload(0x40))\n      tag_23\n      swap3\n      swap2\n      swap1\n      tag_24\n      jump\t// in\n    tag_23:\n      mload(0x40)\n      0x20\n      dup2\n      dup4\n      sub\n      sub\n      dup2\n      mstore\n      swap1\n      0x40\n      mstore\n      and(not(0xffffffffffffffffffffffffffffffffffffffffffffffffffffffff), 0x5e48aafd00000000000000000000000000000000000000000000000000000000)\n      0x20\n      dup3\n      add\n      dup1\n      mload\n      0xffffffffffffffffffffffffffffffffffffffffffffffffffffffff\n      dup4\n      dup2\n      dup4\n      and\n      or\n      dup4\n      mstore\n      pop\n      pop\n      pop\n      pop\n        /* \"contracts/Ex1.sol\":965:1083  _contractAddr.call(... */\n      mload(0x40)\n      tag_25\n      swap2\n      swap1\n      tag_26\n      jump\t// in\n    tag_25:\n      0x00\n      mload(0x40)\n      dup1\n      dup4\n      sub\n      dup2\n      0x00\n      dup7\n      gas\n      call\n      swap2\n      pop\n      pop\n      returndatasize\n      dup1\n      0x00\n      dup2\n      eq\n      tag_29\n      jumpi\n      mload(0x40)\n      swap2\n      pop\n      and(add(returndatasize, 0x3f), not(0x1f))\n      dup3\n      add\n      0x40\n      mstore\n      returndatasize\n      dup3\n      mstore\n      returndatasize\n      0x00\n      0x20\n      dup5\n      add\n      returndatacopy\n      jump(tag_28)\n    tag_29:\n      0x60\n      swap2\n      pop\n    tag_28:\n      pop\n        /* \"contracts/Ex1.sol\":909:1083  (bool success, bytes memory outputFromCalledFunction) = _contractAddr.call(... */\n      swap2\n      pop\n      swap2\n      pop\n        /* \"contracts/Ex1.sol\":1102:1109  success */\n      dup2\n        /* \"contracts/Ex1.sol\":1094:1137  require(success,\"failed to transfer ether\") */\n      tag_30\n      jumpi\n      mload(0x40)\n      0x08c379a000000000000000000000000000000000000000000000000000000000\n      dup2\n      mstore\n      0x04\n      add\n      tag_31\n      swap1\n      tag_21\n      jump\t// in\n    tag_31:\n      mload(0x40)\n      dup1\n      swap2\n      sub\n      swap1\n      revert\n    tag_30:\n        /* \"contracts/Ex1.sol\":1153:1201  calledFunction(success,outputFromCalledFunction) */\n      0x80360304bd82b2c0e319d3e23ce5c7dea2dce952fb2b6bc695a70153f96d93d4\n        /* \"contracts/Ex1.sol\":1168:1175  success */\n      dup3\n        /* \"contracts/Ex1.sol\":1176:1200  outputFromCalledFunction */\n      dup3\n        /* \"contracts/Ex1.sol\":1153:1201  calledFunction(success,outputFromCalledFunction) */\n      mload(0x40)\n      tag_32\n      swap3\n      swap2\n      swap1\n      tag_33\n      jump\t// in\n    tag_32:\n      mload(0x40)\n      dup1\n      swap2\n      sub\n      swap1\n      log1\n        /* \"contracts/Ex1.sol\":898:1209  {... */\n      pop\n      pop\n        /* \"contracts/Ex1.sol\":820:1209  function callMethod(address _contractAddr,uint256 _num1, uint256 _num2) public{... */\n      pop\n      pop\n      pop\n      jump\t// out\n        /* \"#utility.yul\":88:205   */\n    tag_35:\n        /* \"#utility.yul\":197:198   */\n      0x00\n        /* \"#utility.yul\":194:195   */\n      dup1\n        /* \"#utility.yul\":187:199   */\n      revert\n        /* \"#utility.yul\":334:460   */\n    tag_37:\n        /* \"#utility.yul\":371:378   */\n      0x00\n        /* \"#utility.yul\":411:453   */\n      0xffffffffffffffffffffffffffffffffffffffff\n        /* \"#utility.yul\":404:409   */\n      dup3\n        /* \"#utility.yul\":400:454   */\n      and\n        /* \"#utility.yul\":389:454   */\n      swap1\n      pop\n        /* \"#utility.yul\":334:460   */\n      swap2\n      swap1\n      pop\n      jump\t// out\n        /* \"#utility.yul\":466:570   */\n    tag_38:\n        /* \"#utility.yul\":511:518   */\n      0x00\n        /* \"#utility.yul\":540:564   */\n      tag_68\n        /* \"#utility.yul\":558:563   */\n      dup3\n        /* \"#utility.yul\":540:564   */\n      tag_37\n      jump\t// in\n    tag_68:\n        /* \"#utility.yul\":529:564   */\n      swap1\n      pop\n        /* \"#utility.yul\":466:570   */\n      swap2\n      swap1\n      pop\n      jump\t// out\n        /* \"#utility.yul\":576:714   */\n    tag_39:\n        /* \"#utility.yul\":657:689   */\n      tag_70\n        /* \"#utility.yul\":683:688   */\n      dup2\n        /* \"#utility.yul\":657:689   */\n      tag_38\n      jump\t// in\n    tag_70:\n        /* \"#utility.yul\":650:655   */\n      dup2\n        /* \"#utility.yul\":647:690   */\n      eq\n        /* \"#utility.yul\":637:708   */\n      tag_71\n      jumpi\n        /* \"#utility.yul\":704:705   */\n      0x00\n        /* \"#utility.yul\":701:702   */\n      dup1\n        /* \"#utility.yul\":694:706   */\n      revert\n        /* \"#utility.yul\":637:708   */\n    tag_71:\n        /* \"#utility.yul\":576:714   */\n      pop\n      jump\t// out\n        /* \"#utility.yul\":720:875   */\n    tag_40:\n        /* \"#utility.yul\":774:779   */\n      0x00\n        /* \"#utility.yul\":812:818   */\n      dup2\n        /* \"#utility.yul\":799:819   */\n      calldataload\n        /* \"#utility.yul\":790:819   */\n      swap1\n      pop\n        /* \"#utility.yul\":828:869   */\n      tag_73\n        /* \"#utility.yul\":863:868   */\n      dup2\n        /* \"#utility.yul\":828:869   */\n      tag_39\n      jump\t// in\n    tag_73:\n        /* \"#utility.yul\":720:875   */\n      swap3\n      swap2\n      pop\n      pop\n      jump\t// out\n        /* \"#utility.yul\":881:1226   */\n    tag_6:\n        /* \"#utility.yul\":948:954   */\n      0x00\n        /* \"#utility.yul\":997:999   */\n      0x20\n        /* \"#utility.yul\":985:994   */\n      dup3\n        /* \"#utility.yul\":976:983   */\n      dup5\n        /* \"#utility.yul\":972:995   */\n      sub\n        /* \"#utility.yul\":968:1000   */\n      slt\n        /* \"#utility.yul\":965:1084   */\n      iszero\n      tag_75\n      jumpi\n        /* \"#utility.yul\":1003:1082   */\n      tag_76\n      tag_35\n      jump\t// in\n    tag_76:\n        /* \"#utility.yul\":965:1084   */\n    tag_75:\n        /* \"#utility.yul\":1123:1124   */\n      0x00\n        /* \"#utility.yul\":1148:1209   */\n      tag_77\n        /* \"#utility.yul\":1201:1208   */\n      dup5\n        /* \"#utility.yul\":1192:1198   */\n      dup3\n        /* \"#utility.yul\":1181:1190   */\n      dup6\n        /* \"#utility.yul\":1177:1199   */\n      add\n        /* \"#utility.yul\":1148:1209   */\n      tag_40\n      jump\t// in\n    tag_77:\n        /* \"#utility.yul\":1138:1209   */\n      swap2\n      pop\n        /* \"#utility.yul\":1094:1219   */\n      pop\n        /* \"#utility.yul\":881:1226   */\n      swap3\n      swap2\n      pop\n      pop\n      jump\t// out\n        /* \"#utility.yul\":1232:1328   */\n    tag_41:\n        /* \"#utility.yul\":1269:1276   */\n      0x00\n        /* \"#utility.yul\":1298:1322   */\n      tag_79\n        /* \"#utility.yul\":1316:1321   */\n      dup3\n        /* \"#utility.yul\":1298:1322   */\n      tag_37\n      jump\t// in\n    tag_79:\n        /* \"#utility.yul\":1287:1322   */\n      swap1\n      pop\n        /* \"#utility.yul\":1232:1328   */\n      swap2\n      swap1\n      pop\n      jump\t// out\n        /* \"#utility.yul\":1334:1456   */\n    tag_42:\n        /* \"#utility.yul\":1407:1431   */\n      tag_81\n        /* \"#utility.yul\":1425:1430   */\n      dup2\n        /* \"#utility.yul\":1407:1431   */\n      tag_41\n      jump\t// in\n    tag_81:\n        /* \"#utility.yul\":1400:1405   */\n      dup2\n        /* \"#utility.yul\":1397:1432   */\n      eq\n        /* \"#utility.yul\":1387:1450   */\n      tag_82\n      jumpi\n        /* \"#utility.yul\":1446:1447   */\n      0x00\n        /* \"#utility.yul\":1443:1444   */\n      dup1\n        /* \"#utility.yul\":1436:1448   */\n      revert\n        /* \"#utility.yul\":1387:1450   */\n    tag_82:\n        /* \"#utility.yul\":1334:1456   */\n      pop\n      jump\t// out\n        /* \"#utility.yul\":1462:1601   */\n    tag_43:\n        /* \"#utility.yul\":1508:1513   */\n      0x00\n        /* \"#utility.yul\":1546:1552   */\n      dup2\n        /* \"#utility.yul\":1533:1553   */\n      calldataload\n        /* \"#utility.yul\":1524:1553   */\n      swap1\n      pop\n        /* \"#utility.yul\":1562:1595   */\n      tag_84\n        /* \"#utility.yul\":1589:1594   */\n      dup2\n        /* \"#utility.yul\":1562:1595   */\n      tag_42\n      jump\t// in\n    tag_84:\n        /* \"#utility.yul\":1462:1601   */\n      swap3\n      swap2\n      pop\n      pop\n      jump\t// out\n        /* \"#utility.yul\":1607:1684   */\n    tag_44:\n        /* \"#utility.yul\":1644:1651   */\n      0x00\n        /* \"#utility.yul\":1673:1678   */\n      dup2\n        /* \"#utility.yul\":1662:1678   */\n      swap1\n      pop\n        /* \"#utility.yul\":1607:1684   */\n      swap2\n      swap1\n      pop\n      jump\t// out\n        /* \"#utility.yul\":1690:1812   */\n    tag_45:\n        /* \"#utility.yul\":1763:1787   */\n      tag_87\n        /* \"#utility.yul\":1781:1786   */\n      dup2\n        /* \"#utility.yul\":1763:1787   */\n      tag_44\n      jump\t// in\n    tag_87:\n        /* \"#utility.yul\":1756:1761   */\n      dup2\n        /* \"#utility.yul\":1753:1788   */\n      eq\n        /* \"#utility.yul\":1743:1806   */\n      tag_88\n      jumpi\n        /* \"#utility.yul\":1802:1803   */\n      0x00\n        /* \"#utility.yul\":1799:1800   */\n      dup1\n        /* \"#utility.yul\":1792:1804   */\n      revert\n        /* \"#utility.yul\":1743:1806   */\n    tag_88:\n        /* \"#utility.yul\":1690:1812   */\n      pop\n      jump\t// out\n        /* \"#utility.yul\":1818:1957   */\n    tag_46:\n        /* \"#utility.yul\":1864:1869   */\n      0x00\n        /* \"#utility.yul\":1902:1908   */\n      dup2\n        /* \"#utility.yul\":1889:1909   */\n      calldataload\n        /* \"#utility.yul\":1880:1909   */\n      swap1\n      pop\n        /* \"#utility.yul\":1918:1951   */\n      tag_90\n        /* \"#utility.yul\":1945:1950   */\n      dup2\n        /* \"#utility.yul\":1918:1951   */\n      tag_45\n      jump\t// in\n    tag_90:\n        /* \"#utility.yul\":1818:1957   */\n      swap3\n      swap2\n      pop\n      pop\n      jump\t// out\n        /* \"#utility.yul\":1963:2582   */\n    tag_11:\n        /* \"#utility.yul\":2040:2046   */\n      0x00\n        /* \"#utility.yul\":2048:2054   */\n      dup1\n        /* \"#utility.yul\":2056:2062   */\n      0x00\n        /* \"#utility.yul\":2105:2107   */\n      0x60\n        /* \"#utility.yul\":2093:2102   */\n      dup5\n        /* \"#utility.yul\":2084:2091   */\n      dup7\n        /* \"#utility.yul\":2080:2103   */\n      sub\n        /* \"#utility.yul\":2076:2108   */\n      slt\n        /* \"#utility.yul\":2073:2192   */\n      iszero\n      tag_92\n      jumpi\n        /* \"#utility.yul\":2111:2190   */\n      tag_93\n      tag_35\n      jump\t// in\n    tag_93:\n        /* \"#utility.yul\":2073:2192   */\n    tag_92:\n        /* \"#utility.yul\":2231:2232   */\n      0x00\n        /* \"#utility.yul\":2256:2309   */\n      tag_94\n        /* \"#utility.yul\":2301:2308   */\n      dup7\n        /* \"#utility.yul\":2292:2298   */\n      dup3\n        /* \"#utility.yul\":2281:2290   */\n      dup8\n        /* \"#utility.yul\":2277:2299   */\n      add\n        /* \"#utility.yul\":2256:2309   */\n      tag_43\n      jump\t// in\n    tag_94:\n        /* \"#utility.yul\":2246:2309   */\n      swap4\n      pop\n        /* \"#utility.yul\":2202:2319   */\n      pop\n        /* \"#utility.yul\":2358:2360   */\n      0x20\n        /* \"#utility.yul\":2384:2437   */\n      tag_95\n        /* \"#utility.yul\":2429:2436   */\n      dup7\n        /* \"#utility.yul\":2420:2426   */\n      dup3\n        /* \"#utility.yul\":2409:2418   */\n      dup8\n        /* \"#utility.yul\":2405:2427   */\n      add\n        /* \"#utility.yul\":2384:2437   */\n      tag_46\n      jump\t// in\n    tag_95:\n        /* \"#utility.yul\":2374:2437   */\n      swap3\n      pop\n        /* \"#utility.yul\":2329:2447   */\n      pop\n        /* \"#utility.yul\":2486:2488   */\n      0x40\n        /* \"#utility.yul\":2512:2565   */\n      tag_96\n        /* \"#utility.yul\":2557:2564   */\n      dup7\n        /* \"#utility.yul\":2548:2554   */\n      dup3\n        /* \"#utility.yul\":2537:2546   */\n      dup8\n        /* \"#utility.yul\":2533:2555   */\n      add\n        /* \"#utility.yul\":2512:2565   */\n      tag_46\n      jump\t// in\n    tag_96:\n        /* \"#utility.yul\":2502:2565   */\n      swap2\n      pop\n        /* \"#utility.yul\":2457:2575   */\n      pop\n        /* \"#utility.yul\":1963:2582   */\n      swap3\n      pop\n      swap3\n      pop\n      swap3\n      jump\t// out\n        /* \"#utility.yul\":2588:2735   */\n    tag_47:\n        /* \"#utility.yul\":2689:2700   */\n      0x00\n        /* \"#utility.yul\":2726:2729   */\n      dup2\n        /* \"#utility.yul\":2711:2729   */\n      swap1\n      pop\n        /* \"#utility.yul\":2588:2735   */\n      swap3\n      swap2\n      pop\n      pop\n      jump\t// out\n        /* \"#utility.yul\":2741:2855   */\n    tag_48:\n      pop\n      jump\t// out\n        /* \"#utility.yul\":2861:3259   */\n    tag_49:\n        /* \"#utility.yul\":3020:3023   */\n      0x00\n        /* \"#utility.yul\":3041:3124   */\n      tag_100\n        /* \"#utility.yul\":3122:3123   */\n      0x00\n        /* \"#utility.yul\":3117:3120   */\n      dup4\n        /* \"#utility.yul\":3041:3124   */\n      tag_47\n      jump\t// in\n    tag_100:\n        /* \"#utility.yul\":3034:3124   */\n      swap2\n      pop\n        /* \"#utility.yul\":3133:3226   */\n      tag_101\n        /* \"#utility.yul\":3222:3225   */\n      dup3\n        /* \"#utility.yul\":3133:3226   */\n      tag_48\n      jump\t// in\n    tag_101:\n        /* \"#utility.yul\":3251:3252   */\n      0x00\n        /* \"#utility.yul\":3246:3249   */\n      dup3\n        /* \"#utility.yul\":3242:3253   */\n      add\n        /* \"#utility.yul\":3235:3253   */\n      swap1\n      pop\n        /* \"#utility.yul\":2861:3259   */\n      swap2\n      swap1\n      pop\n      jump\t// out\n        /* \"#utility.yul\":3265:3644   */\n    tag_15:\n        /* \"#utility.yul\":3449:3452   */\n      0x00\n        /* \"#utility.yul\":3471:3618   */\n      tag_103\n        /* \"#utility.yul\":3614:3617   */\n      dup3\n        /* \"#utility.yul\":3471:3618   */\n      tag_49\n      jump\t// in\n    tag_103:\n        /* \"#utility.yul\":3464:3618   */\n      swap2\n      pop\n        /* \"#utility.yul\":3635:3638   */\n      dup2\n        /* \"#utility.yul\":3628:3638   */\n      swap1\n      pop\n        /* \"#utility.yul\":3265:3644   */\n      swap2\n      swap1\n      pop\n      jump\t// out\n        /* \"#utility.yul\":3650:3819   */\n    tag_50:\n        /* \"#utility.yul\":3734:3745   */\n      0x00\n        /* \"#utility.yul\":3768:3774   */\n      dup3\n        /* \"#utility.yul\":3763:3766   */\n      dup3\n        /* \"#utility.yul\":3756:3775   */\n      mstore\n        /* \"#utility.yul\":3808:3812   */\n      0x20\n        /* \"#utility.yul\":3803:3806   */\n      dup3\n        /* \"#utility.yul\":3799:3813   */\n      add\n        /* \"#utility.yul\":3784:3813   */\n      swap1\n      pop\n        /* \"#utility.yul\":3650:3819   */\n      swap3\n      swap2\n      pop\n      pop\n      jump\t// out\n        /* \"#utility.yul\":3825:3999   */\n    tag_51:\n        /* \"#utility.yul\":3965:3991   */\n      0x6661696c656420746f207472616e736665722065746865720000000000000000\n        /* \"#utility.yul\":3961:3962   */\n      0x00\n        /* \"#utility.yul\":3953:3959   */\n      dup3\n        /* \"#utility.yul\":3949:3963   */\n      add\n        /* \"#utility.yul\":3942:3992   */\n      mstore\n        /* \"#utility.yul\":3825:3999   */\n      pop\n      jump\t// out\n        /* \"#utility.yul\":4005:4371   */\n    tag_52:\n        /* \"#utility.yul\":4147:4150   */\n      0x00\n        /* \"#utility.yul\":4168:4235   */\n      tag_107\n        /* \"#utility.yul\":4232:4234   */\n      0x18\n        /* \"#utility.yul\":4227:4230   */\n      dup4\n        /* \"#utility.yul\":4168:4235   */\n      tag_50\n      jump\t// in\n    tag_107:\n        /* \"#utility.yul\":4161:4235   */\n      swap2\n      pop\n        /* \"#utility.yul\":4244:4337   */\n      tag_108\n        /* \"#utility.yul\":4333:4336   */\n      dup3\n        /* \"#utility.yul\":4244:4337   */\n      tag_51\n      jump\t// in\n    tag_108:\n        /* \"#utility.yul\":4362:4364   */\n      0x20\n        /* \"#utility.yul\":4357:4360   */\n      dup3\n        /* \"#utility.yul\":4353:4365   */\n      add\n        /* \"#utility.yul\":4346:4365   */\n      swap1\n      pop\n        /* \"#utility.yul\":4005:4371   */\n      swap2\n      swap1\n      pop\n      jump\t// out\n        /* \"#utility.yul\":4377:4796   */\n    tag_21:\n        /* \"#utility.yul\":4543:4547   */\n      0x00\n        /* \"#utility.yul\":4581:4583   */\n      0x20\n        /* \"#utility.yul\":4570:4579   */\n      dup3\n        /* \"#utility.yul\":4566:4584   */\n      add\n        /* \"#utility.yul\":4558:4584   */\n      swap1\n      pop\n        /* \"#utility.yul\":4630:4639   */\n      dup2\n        /* \"#utility.yul\":4624:4628   */\n      dup2\n        /* \"#utility.yul\":4620:4640   */\n      sub\n        /* \"#utility.yul\":4616:4617   */\n      0x00\n        /* \"#utility.yul\":4605:4614   */\n      dup4\n        /* \"#utility.yul\":4601:4618   */\n      add\n        /* \"#utility.yul\":4594:4641   */\n      mstore\n        /* \"#utility.yul\":4658:4789   */\n      tag_110\n        /* \"#utility.yul\":4784:4788   */\n      dup2\n        /* \"#utility.yul\":4658:4789   */\n      tag_52\n      jump\t// in\n    tag_110:\n        /* \"#utility.yul\":4650:4789   */\n      swap1\n      pop\n        /* \"#utility.yul\":4377:4796   */\n      swap2\n      swap1\n      pop\n      jump\t// out\n        /* \"#utility.yul\":4802:4920   */\n    tag_53:\n        /* \"#utility.yul\":4889:4913   */\n      tag_112\n        /* \"#utility.yul\":4907:4912   */\n      dup2\n        /* \"#utility.yul\":4889:4913   */\n      tag_44\n      jump\t// in\n    tag_112:\n        /* \"#utility.yul\":4884:4887   */\n      dup3\n        /* \"#utility.yul\":4877:4914   */\n      mstore\n        /* \"#utility.yul\":4802:4920   */\n      pop\n      pop\n      jump\t// out\n        /* \"#utility.yul\":4926:5258   */\n    tag_24:\n        /* \"#utility.yul\":5047:5051   */\n      0x00\n        /* \"#utility.yul\":5085:5087   */\n      0x40\n        /* \"#utility.yul\":5074:5083   */\n      dup3\n        /* \"#utility.yul\":5070:5088   */\n      add\n        /* \"#utility.yul\":5062:5088   */\n      swap1\n      pop\n        /* \"#utility.yul\":5098:5169   */\n      tag_114\n        /* \"#utility.yul\":5166:5167   */\n      0x00\n        /* \"#utility.yul\":5155:5164   */\n      dup4\n        /* \"#utility.yul\":5151:5168   */\n      add\n        /* \"#utility.yul\":5142:5148   */\n      dup6\n        /* \"#utility.yul\":5098:5169   */\n      tag_53\n      jump\t// in\n    tag_114:\n        /* \"#utility.yul\":5179:5251   */\n      tag_115\n        /* \"#utility.yul\":5247:5249   */\n      0x20\n        /* \"#utility.yul\":5236:5245   */\n      dup4\n        /* \"#utility.yul\":5232:5250   */\n      add\n        /* \"#utility.yul\":5223:5229   */\n      dup5\n        /* \"#utility.yul\":5179:5251   */\n      tag_53\n      jump\t// in\n    tag_115:\n        /* \"#utility.yul\":4926:5258   */\n      swap4\n      swap3\n      pop\n      pop\n      pop\n      jump\t// out\n        /* \"#utility.yul\":5264:5362   */\n    tag_54:\n        /* \"#utility.yul\":5315:5321   */\n      0x00\n        /* \"#utility.yul\":5349:5354   */\n      dup2\n        /* \"#utility.yul\":5343:5355   */\n      mload\n        /* \"#utility.yul\":5333:5355   */\n      swap1\n      pop\n        /* \"#utility.yul\":5264:5362   */\n      swap2\n      swap1\n      pop\n      jump\t// out\n        /* \"#utility.yul\":5368:5614   */\n    tag_55:\n        /* \"#utility.yul\":5449:5450   */\n      0x00\n        /* \"#utility.yul\":5459:5572   */\n    tag_118:\n        /* \"#utility.yul\":5473:5479   */\n      dup4\n        /* \"#utility.yul\":5470:5471   */\n      dup2\n        /* \"#utility.yul\":5467:5480   */\n      lt\n        /* \"#utility.yul\":5459:5572   */\n      iszero\n      tag_120\n      jumpi\n        /* \"#utility.yul\":5558:5559   */\n      dup1\n        /* \"#utility.yul\":5553:5556   */\n      dup3\n        /* \"#utility.yul\":5549:5560   */\n      add\n        /* \"#utility.yul\":5543:5561   */\n      mload\n        /* \"#utility.yul\":5539:5540   */\n      dup2\n        /* \"#utility.yul\":5534:5537   */\n      dup5\n        /* \"#utility.yul\":5530:5541   */\n      add\n        /* \"#utility.yul\":5523:5562   */\n      mstore\n        /* \"#utility.yul\":5495:5497   */\n      0x20\n        /* \"#utility.yul\":5492:5493   */\n      dup2\n        /* \"#utility.yul\":5488:5498   */\n      add\n        /* \"#utility.yul\":5483:5498   */\n      swap1\n      pop\n        /* \"#utility.yul\":5459:5572   */\n      jump(tag_118)\n    tag_120:\n        /* \"#utility.yul\":5606:5607   */\n      0x00\n        /* \"#utility.yul\":5597:5603   */\n      dup5\n        /* \"#utility.yul\":5592:5595   */\n      dup5\n        /* \"#utility.yul\":5588:5604   */\n      add\n        /* \"#utility.yul\":5581:5608   */\n      mstore\n        /* \"#utility.yul\":5430:5614   */\n      pop\n        /* \"#utility.yul\":5368:5614   */\n      pop\n      pop\n      pop\n      jump\t// out\n        /* \"#utility.yul\":5620:6006   */\n    tag_56:\n        /* \"#utility.yul\":5724:5727   */\n      0x00\n        /* \"#utility.yul\":5752:5790   */\n      tag_122\n        /* \"#utility.yul\":5784:5789   */\n      dup3\n        /* \"#utility.yul\":5752:5790   */\n      tag_54\n      jump\t// in\n    tag_122:\n        /* \"#utility.yul\":5806:5894   */\n      tag_123\n        /* \"#utility.yul\":5887:5893   */\n      dup2\n        /* \"#utility.yul\":5882:5885   */\n      dup6\n        /* \"#utility.yul\":5806:5894   */\n      tag_47\n      jump\t// in\n    tag_123:\n        /* \"#utility.yul\":5799:5894   */\n      swap4\n      pop\n        /* \"#utility.yul\":5903:5968   */\n      tag_124\n        /* \"#utility.yul\":5961:5967   */\n      dup2\n        /* \"#utility.yul\":5956:5959   */\n      dup6\n        /* \"#utility.yul\":5949:5953   */\n      0x20\n        /* \"#utility.yul\":5942:5947   */\n      dup7\n        /* \"#utility.yul\":5938:5954   */\n      add\n        /* \"#utility.yul\":5903:5968   */\n      tag_55\n      jump\t// in\n    tag_124:\n        /* \"#utility.yul\":5993:5999   */\n      dup1\n        /* \"#utility.yul\":5988:5991   */\n      dup5\n        /* \"#utility.yul\":5984:6000   */\n      add\n        /* \"#utility.yul\":5977:6000   */\n      swap2\n      pop\n        /* \"#utility.yul\":5728:6006   */\n      pop\n        /* \"#utility.yul\":5620:6006   */\n      swap3\n      swap2\n      pop\n      pop\n      jump\t// out\n        /* \"#utility.yul\":6012:6283   */\n    tag_26:\n        /* \"#utility.yul\":6142:6145   */\n      0x00\n        /* \"#utility.yul\":6164:6257   */\n      tag_126\n        /* \"#utility.yul\":6253:6256   */\n      dup3\n        /* \"#utility.yul\":6244:6250   */\n      dup5\n        /* \"#utility.yul\":6164:6257   */\n      tag_56\n      jump\t// in\n    tag_126:\n        /* \"#utility.yul\":6157:6257   */\n      swap2\n      pop\n        /* \"#utility.yul\":6274:6277   */\n      dup2\n        /* \"#utility.yul\":6267:6277   */\n      swap1\n      pop\n        /* \"#utility.yul\":6012:6283   */\n      swap3\n      swap2\n      pop\n      pop\n      jump\t// out\n        /* \"#utility.yul\":6289:6379   */\n    tag_57:\n        /* \"#utility.yul\":6323:6330   */\n      0x00\n        /* \"#utility.yul\":6366:6371   */\n      dup2\n        /* \"#utility.yul\":6359:6372   */\n      iszero\n        /* \"#utility.yul\":6352:6373   */\n      iszero\n        /* \"#utility.yul\":6341:6373   */\n      swap1\n      pop\n        /* \"#utility.yul\":6289:6379   */\n      swap2\n      swap1\n      pop\n      jump\t// out\n        /* \"#utility.yul\":6385:6494   */\n    tag_58:\n        /* \"#utility.yul\":6466:6487   */\n      tag_129\n        /* \"#utility.yul\":6481:6486   */\n      dup2\n        /* \"#utility.yul\":6466:6487   */\n      tag_57\n      jump\t// in\n    tag_129:\n        /* \"#utility.yul\":6461:6464   */\n      dup3\n        /* \"#utility.yul\":6454:6488   */\n      mstore\n        /* \"#utility.yul\":6385:6494   */\n      pop\n      pop\n      jump\t// out\n        /* \"#utility.yul\":6500:6668   */\n    tag_59:\n        /* \"#utility.yul\":6583:6594   */\n      0x00\n        /* \"#utility.yul\":6617:6623   */\n      dup3\n        /* \"#utility.yul\":6612:6615   */\n      dup3\n        /* \"#utility.yul\":6605:6624   */\n      mstore\n        /* \"#utility.yul\":6657:6661   */\n      0x20\n        /* \"#utility.yul\":6652:6655   */\n      dup3\n        /* \"#utility.yul\":6648:6662   */\n      add\n        /* \"#utility.yul\":6633:6662   */\n      swap1\n      pop\n        /* \"#utility.yul\":6500:6668   */\n      swap3\n      swap2\n      pop\n      pop\n      jump\t// out\n        /* \"#utility.yul\":6674:6776   */\n    tag_60:\n        /* \"#utility.yul\":6715:6721   */\n      0x00\n        /* \"#utility.yul\":6766:6768   */\n      0x1f\n        /* \"#utility.yul\":6762:6769   */\n      not\n        /* \"#utility.yul\":6757:6759   */\n      0x1f\n        /* \"#utility.yul\":6750:6755   */\n      dup4\n        /* \"#utility.yul\":6746:6760   */\n      add\n        /* \"#utility.yul\":6742:6770   */\n      and\n        /* \"#utility.yul\":6732:6770   */\n      swap1\n      pop\n        /* \"#utility.yul\":6674:6776   */\n      swap2\n      swap1\n      pop\n      jump\t// out\n        /* \"#utility.yul\":6782:7155   */\n    tag_61:\n        /* \"#utility.yul\":6868:6871   */\n      0x00\n        /* \"#utility.yul\":6896:6934   */\n      tag_133\n        /* \"#utility.yul\":6928:6933   */\n      dup3\n        /* \"#utility.yul\":6896:6934   */\n      tag_54\n      jump\t// in\n    tag_133:\n        /* \"#utility.yul\":6950:7020   */\n      tag_134\n        /* \"#utility.yul\":7013:7019   */\n      dup2\n        /* \"#utility.yul\":7008:7011   */\n      dup6\n        /* \"#utility.yul\":6950:7020   */\n      tag_59\n      jump\t// in\n    tag_134:\n        /* \"#utility.yul\":6943:7020   */\n      swap4\n      pop\n        /* \"#utility.yul\":7029:7094   */\n      tag_135\n        /* \"#utility.yul\":7087:7093   */\n      dup2\n        /* \"#utility.yul\":7082:7085   */\n      dup6\n        /* \"#utility.yul\":7075:7079   */\n      0x20\n        /* \"#utility.yul\":7068:7073   */\n      dup7\n        /* \"#utility.yul\":7064:7080   */\n      add\n        /* \"#utility.yul\":7029:7094   */\n      tag_55\n      jump\t// in\n    tag_135:\n        /* \"#utility.yul\":7119:7148   */\n      tag_136\n        /* \"#utility.yul\":7141:7147   */\n      dup2\n        /* \"#utility.yul\":7119:7148   */\n      tag_60\n      jump\t// in\n    tag_136:\n        /* \"#utility.yul\":7114:7117   */\n      dup5\n        /* \"#utility.yul\":7110:7149   */\n      add\n        /* \"#utility.yul\":7103:7149   */\n      swap2\n      pop\n        /* \"#utility.yul\":6872:7155   */\n      pop\n        /* \"#utility.yul\":6782:7155   */\n      swap3\n      swap2\n      pop\n      pop\n      jump\t// out\n        /* \"#utility.yul\":7161:7568   */\n    tag_33:\n        /* \"#utility.yul\":7294:7298   */\n      0x00\n        /* \"#utility.yul\":7332:7334   */\n      0x40\n        /* \"#utility.yul\":7321:7330   */\n      dup3\n        /* \"#utility.yul\":7317:7335   */\n      add\n        /* \"#utility.yul\":7309:7335   */\n      swap1\n      pop\n        /* \"#utility.yul\":7345:7410   */\n      tag_138\n        /* \"#utility.yul\":7407:7408   */\n      0x00\n        /* \"#utility.yul\":7396:7405   */\n      dup4\n        /* \"#utility.yul\":7392:7409   */\n      add\n        /* \"#utility.yul\":7383:7389   */\n      dup6\n        /* \"#utility.yul\":7345:7410   */\n      tag_58\n      jump\t// in\n    tag_138:\n        /* \"#utility.yul\":7457:7466   */\n      dup2\n        /* \"#utility.yul\":7451:7455   */\n      dup2\n        /* \"#utility.yul\":7447:7467   */\n      sub\n        /* \"#utility.yul\":7442:7444   */\n      0x20\n        /* \"#utility.yul\":7431:7440   */\n      dup4\n        /* \"#utility.yul\":7427:7445   */\n      add\n        /* \"#utility.yul\":7420:7468   */\n      mstore\n        /* \"#utility.yul\":7485:7561   */\n      tag_139\n        /* \"#utility.yul\":7556:7560   */\n      dup2\n        /* \"#utility.yul\":7547:7553   */\n      dup5\n        /* \"#utility.yul\":7485:7561   */\n      tag_61\n      jump\t// in\n    tag_139:\n        /* \"#utility.yul\":7477:7561   */\n      swap1\n      pop\n        /* \"#utility.yul\":7161:7568   */\n      swap4\n      swap3\n      pop\n      pop\n      pop\n      jump\t// out\n\n    auxdata: 0xa264697066735822122082cec61bbdf48bd7094d4f4c49a8220ae7e42218f0ebe0f4a9241840992fedfc64736f6c63430008120033\n}\n",
				"bytecode": {
					"linkReferences": {},
					"object": "608060405234801561001057600080fd5b5061064c806100206000396000f3fe6080604052600436106100295760003560e01c80636b55e9911461002e5780636bca61b91461004a575b600080fd5b61004860048036038101906100439190610304565b610073565b005b34801561005657600080fd5b50610071600480360381019061006c91906103a5565b610123565b005b60008173ffffffffffffffffffffffffffffffffffffffff163460405161009990610429565b60006040518083038185875af1925050503d80600081146100d6576040519150601f19603f3d011682016040523d82523d6000602084013e6100db565b606091505b505090508061011f576040517f08c379a00000000000000000000000000000000000000000000000000000000081526004016101169061049b565b60405180910390fd5b5050565b6000808473ffffffffffffffffffffffffffffffffffffffff1684846040516024016101509291906104ca565b6040516020818303038152906040527f5e48aafd000000000000000000000000000000000000000000000000000000007bffffffffffffffffffffffffffffffffffffffffffffffffffffffff19166020820180517bffffffffffffffffffffffffffffffffffffffffffffffffffffffff83818316178352505050506040516101da9190610559565b6000604051808303816000865af19150503d8060008114610217576040519150601f19603f3d011682016040523d82523d6000602084013e61021c565b606091505b509150915081610261576040517f08c379a00000000000000000000000000000000000000000000000000000000081526004016102589061049b565b60405180910390fd5b7f80360304bd82b2c0e319d3e23ce5c7dea2dce952fb2b6bc695a70153f96d93d482826040516102929291906105e6565b60405180910390a15050505050565b600080fd5b600073ffffffffffffffffffffffffffffffffffffffff82169050919050565b60006102d1826102a6565b9050919050565b6102e1816102c6565b81146102ec57600080fd5b50565b6000813590506102fe816102d8565b92915050565b60006020828403121561031a576103196102a1565b5b6000610328848285016102ef565b91505092915050565b600061033c826102a6565b9050919050565b61034c81610331565b811461035757600080fd5b50565b60008135905061036981610343565b92915050565b6000819050919050565b6103828161036f565b811461038d57600080fd5b50565b60008135905061039f81610379565b92915050565b6000806000606084860312156103be576103bd6102a1565b5b60006103cc8682870161035a565b93505060206103dd86828701610390565b92505060406103ee86828701610390565b9150509250925092565b600081905092915050565b50565b60006104136000836103f8565b915061041e82610403565b600082019050919050565b600061043482610406565b9150819050919050565b600082825260208201905092915050565b7f6661696c656420746f207472616e736665722065746865720000000000000000600082015250565b600061048560188361043e565b91506104908261044f565b602082019050919050565b600060208201905081810360008301526104b481610478565b9050919050565b6104c48161036f565b82525050565b60006040820190506104df60008301856104bb565b6104ec60208301846104bb565b9392505050565b600081519050919050565b60005b8381101561051c578082015181840152602081019050610501565b60008484015250505050565b6000610533826104f3565b61053d81856103f8565b935061054d8185602086016104fe565b80840191505092915050565b60006105658284610528565b915081905092915050565b60008115159050919050565b61058581610570565b82525050565b600082825260208201905092915050565b6000601f19601f8301169050919050565b60006105b8826104f3565b6105c2818561058b565b93506105d28185602086016104fe565b6105db8161059c565b840191505092915050565b60006040820190506105fb600083018561057c565b818103602083015261060d81846105ad565b9050939250505056fea264697066735822122082cec61bbdf48bd7094d4f4c49a8220ae7e42218f0ebe0f4a9241840992fedfc64736f6c63430008120033",
					"opcodes": "PUSH1 0x80 PUSH1 0x40 MSTORE CALLVALUE DUP1 ISZERO PUSH2 0x10 JUMPI PUSH1 0x0 DUP1 REVERT JUMPDEST POP PUSH2 0x64C DUP1 PUSH2 0x20 PUSH1 0x0 CODECOPY PUSH1 0x0 RETURN INVALID PUSH1 0x80 PUSH1 0x40 MSTORE PUSH1 0x4 CALLDATASIZE LT PUSH2 0x29 JUMPI PUSH1 0x0 CALLDATALOAD PUSH1 0xE0 SHR DUP1 PUSH4 0x6B55E991 EQ PUSH2 0x2E JUMPI DUP1 PUSH4 0x6BCA61B9 EQ PUSH2 0x4A JUMPI JUMPDEST PUSH1 0x0 DUP1 REVERT JUMPDEST PUSH2 0x48 PUSH1 0x4 DUP1 CALLDATASIZE SUB DUP2 ADD SWAP1 PUSH2 0x43 SWAP2 SWAP1 PUSH2 0x304 JUMP JUMPDEST PUSH2 0x73 JUMP JUMPDEST STOP JUMPDEST CALLVALUE DUP1 ISZERO PUSH2 0x56 JUMPI PUSH1 0x0 DUP1 REVERT JUMPDEST POP PUSH2 0x71 PUSH1 0x4 DUP1 CALLDATASIZE SUB DUP2 ADD SWAP1 PUSH2 0x6C SWAP2 SWAP1 PUSH2 0x3A5 JUMP JUMPDEST PUSH2 0x123 JUMP JUMPDEST STOP JUMPDEST PUSH1 0x0 DUP2 PUSH20 0xFFFFFFFFFFFFFFFFFFFFFFFFFFFFFFFFFFFFFFFF AND CALLVALUE PUSH1 0x40 MLOAD PUSH2 0x99 SWAP1 PUSH2 0x429 JUMP JUMPDEST PUSH1 0x0 PUSH1 0x40 MLOAD DUP1 DUP4 SUB DUP2 DUP6 DUP8 GAS CALL SWAP3 POP POP POP RETURNDATASIZE DUP1 PUSH1 0x0 DUP2 EQ PUSH2 0xD6 JUMPI PUSH1 0x40 MLOAD SWAP2 POP PUSH1 0x1F NOT PUSH1 0x3F RETURNDATASIZE ADD AND DUP3 ADD PUSH1 0x40 MSTORE RETURNDATASIZE DUP3 MSTORE RETURNDATASIZE PUSH1 0x0 PUSH1 0x20 DUP5 ADD RETURNDATACOPY PUSH2 0xDB JUMP JUMPDEST PUSH1 0x60 SWAP2 POP JUMPDEST POP POP SWAP1 POP DUP1 PUSH2 0x11F JUMPI PUSH1 0x40 MLOAD PUSH32 0x8C379A000000000000000000000000000000000000000000000000000000000 DUP2 MSTORE PUSH1 0x4 ADD PUSH2 0x116 SWAP1 PUSH2 0x49B JUMP JUMPDEST PUSH1 0x40 MLOAD DUP1 SWAP2 SUB SWAP1 REVERT JUMPDEST POP POP JUMP JUMPDEST PUSH1 0x0 DUP1 DUP5 PUSH20 0xFFFFFFFFFFFFFFFFFFFFFFFFFFFFFFFFFFFFFFFF AND DUP5 DUP5 PUSH1 0x40 MLOAD PUSH1 0x24 ADD PUSH2 0x150 SWAP3 SWAP2 SWAP1 PUSH2 0x4CA JUMP JUMPDEST PUSH1 0x40 MLOAD PUSH1 0x20 DUP2 DUP4 SUB SUB DUP2 MSTORE SWAP1 PUSH1 0x40 MSTORE PUSH32 0x5E48AAFD00000000000000000000000000000000000000000000000000000000 PUSH28 0xFFFFFFFFFFFFFFFFFFFFFFFFFFFFFFFFFFFFFFFFFFFFFFFFFFFFFFFF NOT AND PUSH1 0x20 DUP3 ADD DUP1 MLOAD PUSH28 0xFFFFFFFFFFFFFFFFFFFFFFFFFFFFFFFFFFFFFFFFFFFFFFFFFFFFFFFF DUP4 DUP2 DUP4 AND OR DUP4 MSTORE POP POP POP POP PUSH1 0x40 MLOAD PUSH2 0x1DA SWAP2 SWAP1 PUSH2 0x559 JUMP JUMPDEST PUSH1 0x0 PUSH1 0x40 MLOAD DUP1 DUP4 SUB DUP2 PUSH1 0x0 DUP7 GAS CALL SWAP2 POP POP RETURNDATASIZE DUP1 PUSH1 0x0 DUP2 EQ PUSH2 0x217 JUMPI PUSH1 0x40 MLOAD SWAP2 POP PUSH1 0x1F NOT PUSH1 0x3F RETURNDATASIZE ADD AND DUP3 ADD PUSH1 0x40 MSTORE RETURNDATASIZE DUP3 MSTORE RETURNDATASIZE PUSH1 0x0 PUSH1 0x20 DUP5 ADD RETURNDATACOPY PUSH2 0x21C JUMP JUMPDEST PUSH1 0x60 SWAP2 POP JUMPDEST POP SWAP2 POP SWAP2 POP DUP2 PUSH2 0x261 JUMPI PUSH1 0x40 MLOAD PUSH32 0x8C379A000000000000000000000000000000000000000000000000000000000 DUP2 MSTORE PUSH1 0x4 ADD PUSH2 0x258 SWAP1 PUSH2 0x49B JUMP JUMPDEST PUSH1 0x40 MLOAD DUP1 SWAP2 SUB SWAP1 REVERT JUMPDEST PUSH32 0x80360304BD82B2C0E319D3E23CE5C7DEA2DCE952FB2B6BC695A70153F96D93D4 DUP3 DUP3 PUSH1 0x40 MLOAD PUSH2 0x292 SWAP3 SWAP2 SWAP1 PUSH2 0x5E6 JUMP JUMPDEST PUSH1 0x40 MLOAD DUP1 SWAP2 SUB SWAP1 LOG1 POP POP POP POP POP JUMP JUMPDEST PUSH1 0x0 DUP1 REVERT JUMPDEST PUSH1 0x0 PUSH20 0xFFFFFFFFFFFFFFFFFFFFFFFFFFFFFFFFFFFFFFFF DUP3 AND SWAP1 POP SWAP2 SWAP1 POP JUMP JUMPDEST PUSH1 0x0 PUSH2 0x2D1 DUP3 PUSH2 0x2A6 JUMP JUMPDEST SWAP1 POP SWAP2 SWAP1 POP JUMP JUMPDEST PUSH2 0x2E1 DUP2 PUSH2 0x2C6 JUMP JUMPDEST DUP2 EQ PUSH2 0x2EC JUMPI PUSH1 0x0 DUP1 REVERT JUMPDEST POP JUMP JUMPDEST PUSH1 0x0 DUP2 CALLDATALOAD SWAP1 POP PUSH2 0x2FE DUP2 PUSH2 0x2D8 JUMP JUMPDEST SWAP3 SWAP2 POP POP JUMP JUMPDEST PUSH1 0x0 PUSH1 0x20 DUP3 DUP5 SUB SLT ISZERO PUSH2 0x31A JUMPI PUSH2 0x319 PUSH2 0x2A1 JUMP JUMPDEST JUMPDEST PUSH1 0x0 PUSH2 0x328 DUP5 DUP3 DUP6 ADD PUSH2 0x2EF JUMP JUMPDEST SWAP2 POP POP SWAP3 SWAP2 POP POP JUMP JUMPDEST PUSH1 0x0 PUSH2 0x33C DUP3 PUSH2 0x2A6 JUMP JUMPDEST SWAP1 POP SWAP2 SWAP1 POP JUMP JUMPDEST PUSH2 0x34C DUP2 PUSH2 0x331 JUMP JUMPDEST DUP2 EQ PUSH2 0x357 JUMPI PUSH1 0x0 DUP1 REVERT JUMPDEST POP JUMP JUMPDEST PUSH1 0x0 DUP2 CALLDATALOAD SWAP1 POP PUSH2 0x369 DUP2 PUSH2 0x343 JUMP JUMPDEST SWAP3 SWAP2 POP POP JUMP JUMPDEST PUSH1 0x0 DUP2 SWAP1 POP SWAP2 SWAP1 POP JUMP JUMPDEST PUSH2 0x382 DUP2 PUSH2 0x36F JUMP JUMPDEST DUP2 EQ PUSH2 0x38D JUMPI PUSH1 0x0 DUP1 REVERT JUMPDEST POP JUMP JUMPDEST PUSH1 0x0 DUP2 CALLDATALOAD SWAP1 POP PUSH2 0x39F DUP2 PUSH2 0x379 JUMP JUMPDEST SWAP3 SWAP2 POP POP JUMP JUMPDEST PUSH1 0x0 DUP1 PUSH1 0x0 PUSH1 0x60 DUP5 DUP7 SUB SLT ISZERO PUSH2 0x3BE JUMPI PUSH2 0x3BD PUSH2 0x2A1 JUMP JUMPDEST JUMPDEST PUSH1 0x0 PUSH2 0x3CC DUP7 DUP3 DUP8 ADD PUSH2 0x35A JUMP JUMPDEST SWAP4 POP POP PUSH1 0x20 PUSH2 0x3DD DUP7 DUP3 DUP8 ADD PUSH2 0x390 JUMP JUMPDEST SWAP3 POP POP PUSH1 0x40 PUSH2 0x3EE DUP7 DUP3 DUP8 ADD PUSH2 0x390 JUMP JUMPDEST SWAP2 POP POP SWAP3 POP SWAP3 POP SWAP3 JUMP JUMPDEST PUSH1 0x0 DUP2 SWAP1 POP SWAP3 SWAP2 POP POP JUMP JUMPDEST POP JUMP JUMPDEST PUSH1 0x0 PUSH2 0x413 PUSH1 0x0 DUP4 PUSH2 0x3F8 JUMP JUMPDEST SWAP2 POP PUSH2 0x41E DUP3 PUSH2 0x403 JUMP JUMPDEST PUSH1 0x0 DUP3 ADD SWAP1 POP SWAP2 SWAP1 POP JUMP JUMPDEST PUSH1 0x0 PUSH2 0x434 DUP3 PUSH2 0x406 JUMP JUMPDEST SWAP2 POP DUP2 SWAP1 POP SWAP2 SWAP1 POP JUMP JUMPDEST PUSH1 0x0 DUP3 DUP3 MSTORE PUSH1 0x20 DUP3 ADD SWAP1 POP SWAP3 SWAP2 POP POP JUMP JUMPDEST PUSH32 0x6661696C656420746F207472616E736665722065746865720000000000000000 PUSH1 0x0 DUP3 ADD MSTORE POP JUMP JUMPDEST PUSH1 0x0 PUSH2 0x485 PUSH1 0x18 DUP4 PUSH2 0x43E JUMP JUMPDEST SWAP2 POP PUSH2 0x490 DUP3 PUSH2 0x44F JUMP JUMPDEST PUSH1 0x20 DUP3 ADD SWAP1 POP SWAP2 SWAP1 POP JUMP JUMPDEST PUSH1 0x0 PUSH1 0x20 DUP3 ADD SWAP1 POP DUP2 DUP2 SUB PUSH1 0x0 DUP4 ADD MSTORE PUSH2 0x4B4 DUP2 PUSH2 0x478 JUMP JUMPDEST SWAP1 POP SWAP2 SWAP1 POP JUMP JUMPDEST PUSH2 0x4C4 DUP2 PUSH2 0x36F JUMP JUMPDEST DUP3 MSTORE POP POP JUMP JUMPDEST PUSH1 0x0 PUSH1 0x40 DUP3 ADD SWAP1 POP PUSH2 0x4DF PUSH1 0x0 DUP4 ADD DUP6 PUSH2 0x4BB JUMP JUMPDEST PUSH2 0x4EC PUSH1 0x20 DUP4 ADD DUP5 PUSH2 0x4BB JUMP JUMPDEST SWAP4 SWAP3 POP POP POP JUMP JUMPDEST PUSH1 0x0 DUP2 MLOAD SWAP1 POP SWAP2 SWAP1 POP JUMP JUMPDEST PUSH1 0x0 JUMPDEST DUP4 DUP2 LT ISZERO PUSH2 0x51C JUMPI DUP1 DUP3 ADD MLOAD DUP2 DUP5 ADD MSTORE PUSH1 0x20 DUP2 ADD SWAP1 POP PUSH2 0x501 JUMP JUMPDEST PUSH1 0x0 DUP5 DUP5 ADD MSTORE POP POP POP POP JUMP JUMPDEST PUSH1 0x0 PUSH2 0x533 DUP3 PUSH2 0x4F3 JUMP JUMPDEST PUSH2 0x53D DUP2 DUP6 PUSH2 0x3F8 JUMP JUMPDEST SWAP4 POP PUSH2 0x54D DUP2 DUP6 PUSH1 0x20 DUP7 ADD PUSH2 0x4FE JUMP JUMPDEST DUP1 DUP5 ADD SWAP2 POP POP SWAP3 SWAP2 POP POP JUMP JUMPDEST PUSH1 0x0 PUSH2 0x565 DUP3 DUP5 PUSH2 0x528 JUMP JUMPDEST SWAP2 POP DUP2 SWAP1 POP SWAP3 SWAP2 POP POP JUMP JUMPDEST PUSH1 0x0 DUP2 ISZERO ISZERO SWAP1 POP SWAP2 SWAP1 POP JUMP JUMPDEST PUSH2 0x585 DUP2 PUSH2 0x570 JUMP JUMPDEST DUP3 MSTORE POP POP JUMP JUMPDEST PUSH1 0x0 DUP3 DUP3 MSTORE PUSH1 0x20 DUP3 ADD SWAP1 POP SWAP3 SWAP2 POP POP JUMP JUMPDEST PUSH1 0x0 PUSH1 0x1F NOT PUSH1 0x1F DUP4 ADD AND SWAP1 POP SWAP2 SWAP1 POP JUMP JUMPDEST PUSH1 0x0 PUSH2 0x5B8 DUP3 PUSH2 0x4F3 JUMP JUMPDEST PUSH2 0x5C2 DUP2 DUP6 PUSH2 0x58B JUMP JUMPDEST SWAP4 POP PUSH2 0x5D2 DUP2 DUP6 PUSH1 0x20 DUP7 ADD PUSH2 0x4FE JUMP JUMPDEST PUSH2 0x5DB DUP2 PUSH2 0x59C JUMP JUMPDEST DUP5 ADD SWAP2 POP POP SWAP3 SWAP2 POP POP JUMP JUMPDEST PUSH1 0x0 PUSH1 0x40 DUP3 ADD SWAP1 POP PUSH2 0x5FB PUSH1 0x0 DUP4 ADD DUP6 PUSH2 0x57C JUMP JUMPDEST DUP2 DUP2 SUB PUSH1 0x20 DUP4 ADD MSTORE PUSH2 0x60D DUP2 DUP5 PUSH2 0x5AD JUMP JUMPDEST SWAP1 POP SWAP4 SWAP3 POP POP POP JUMP INVALID LOG2 PUSH5 0x6970667358 0x22 SLT KECCAK256 DUP3 0xCE 0xC6 SHL 0xBD DELEGATECALL DUP12 0xD7 MULMOD 0x4D 0x4F 0x4C 0x49 0xA8 0x22 EXP 0xE7 0xE4 0x22 XOR CREATE 0xEB 0xE0 DELEGATECALL 0xA9 0x24 XOR BLOCKHASH SWAP10 0x2F 0xED 0xFC PUSH5 0x736F6C6343 STOP ADDMOD SLT STOP CALLER "
				},
				"gasEstimates": {
					"creation": {
						"codeDepositCost": "322400",
						"executionCost": "362",
						"totalCost": "322762"
					},
					"external": {
						"callMethod(address,uint256,uint256)": "infinite",
						"transferEther(address)": "infinite"
					}
				},
				"methodIdentifiers": {
					"callMethod(address,uint256,uint256)": "6bca61b9",
					"transferEther(address)": "6b55e991"
				}
			},
			"storageLayout": {
				"storage": [],
				"types": null
			},
			"userdoc": {
				"kind": "user",
				"methods": {},
				"version": 1
			}
		}
	}
}