{
	"data": {
		"bytecode": {
			"linkReferences": {},
			"object": "608060405260016002556040518060400160405280600c81526020017f68656c6c6f20776f726c64210000000000000000000000000000000000000000815250600390816200004f919062000334565b5060036007908162000062919062000448565b50600560003373ffffffffffffffffffffffffffffffffffffffff1673ffffffffffffffffffffffffffffffffffffffff16815260200190815260200160002054600855348015620000b357600080fd5b5062000549565b600081519050919050565b7f4e487b7100000000000000000000000000000000000000000000000000000000600052604160045260246000fd5b7f4e487b7100000000000000000000000000000000000000000000000000000000600052602260045260246000fd5b600060028204905060018216806200013c57607f821691505b602082108103620001525762000151620000f4565b5b50919050565b60008190508160005260206000209050919050565b60006020601f8301049050919050565b600082821b905092915050565b600060088302620001bc7fffffffffffffffffffffffffffffffffffffffffffffffffffffffffffffffff826200017d565b620001c886836200017d565b95508019841693508086168417925050509392505050565b6000819050919050565b6000819050919050565b6000620002156200020f6200020984620001e0565b620001ea565b620001e0565b9050919050565b6000819050919050565b6200023183620001f4565b6200024962000240826200021c565b8484546200018a565b825550505050565b600090565b6200026062000251565b6200026d81848462000226565b505050565b5b8181101562000295576200028960008262000256565b60018101905062000273565b5050565b601f821115620002e457620002ae8162000158565b620002b9846200016d565b81016020851015620002c9578190505b620002e1620002d8856200016d565b83018262000272565b50505b505050565b600082821c905092915050565b60006200030960001984600802620002e9565b1980831691505092915050565b6000620003248383620002f6565b9150826002028217905092915050565b6200033f82620000ba565b67ffffffffffffffff8111156200035b576200035a620000c5565b5b62000367825462000123565b6200037482828562000299565b600060209050601f831160018114620003ac576000841562000397578287015190505b620003a3858262000316565b86555062000413565b601f198416620003bc8662000158565b60005b82811015620003e657848901518255600182019150602085019450602081019050620003bf565b8683101562000406578489015162000402601f891682620002f6565b8355505b6001600288020188555050505b505050505050565b6000815490506200042c8162000123565b9050919050565b60008190508160005260206000209050919050565b8181036200045857505062000547565b62000463826200041b565b67ffffffffffffffff8111156200047f576200047e620000c5565b5b6200048b825462000123565b6200049882828562000299565b6000601f831160018114620004cc5760008415620004b7578287015490505b620004c3858262000316565b86555062000540565b601f198416620004dc8762000433565b9650620004e98662000158565b60005b828110156200051357848901548255600182019150600185019450602081019050620004ec565b868310156200053357848901546200052f601f891682620002f6565b8355505b6001600288020188555050505b5050505050505b565b6104b480620005596000396000f3fe608060405234801561001057600080fd5b50600436106100575760003560e01c806302ce22741461005c5780630dbe671f1461007a578063609bcd5a14610098578063bb7b6e62146100b7578063d68f359e146100c1575b600080fd5b6100646100df565b604051610071919061031a565b60405180910390f35b61008261016d565b60405161008f9190610355565b60405180910390f35b6100a0610173565b6040516100ae929190610389565b60405180910390f35b6100bf610185565b005b6100c9610284565b6040516100d69190610355565b60405180910390f35b600380546100ec906103e1565b80601f0160208091040260200160405190810160405280929190818152602001828054610118906103e1565b80156101655780601f1061013a57610100808354040283529160200191610165565b820191906000526020600020905b81548152906001019060200180831161014857829003601f168201915b505050505081565b60025481565b60008060000154908060010154905082565b6003600560003373ffffffffffffffffffffffffffffffffffffffff1673ffffffffffffffffffffffffffffffffffffffff16815260200190815260200160002081905550600160046000600181526020019081526020016000208190555061014d6004600060028152602001908152602001600020819055506002600560003373ffffffffffffffffffffffffffffffffffffffff1673ffffffffffffffffffffffffffffffffffffffff168152602001908152602001600020541015610282576040517f08c379a00000000000000000000000000000000000000000000000000000000081526004016102799061045e565b60405180910390fd5b565b60085481565b600081519050919050565b600082825260208201905092915050565b60005b838110156102c45780820151818401526020810190506102a9565b60008484015250505050565b6000601f19601f8301169050919050565b60006102ec8261028a565b6102f68185610295565b93506103068185602086016102a6565b61030f816102d0565b840191505092915050565b6000602082019050818103600083015261033481846102e1565b905092915050565b6000819050919050565b61034f8161033c565b82525050565b600060208201905061036a6000830184610346565b92915050565b6000819050919050565b61038381610370565b82525050565b600060408201905061039e6000830185610346565b6103ab602083018461037a565b9392505050565b7f4e487b7100000000000000000000000000000000000000000000000000000000600052602260045260246000fd5b600060028204905060018216806103f957607f821691505b60208210810361040c5761040b6103b2565b5b50919050565b7f776f772c207468697320697320617765736f6d65210000000000000000000000600082015250565b6000610448601583610295565b915061045382610412565b602082019050919050565b600060208201905081810360008301526104778161043b565b905091905056fea264697066735822122088ad282fd67174034be3495d05ade0056513daf353cb4d2b72a4760ec19413e564736f6c63430008120033",
			"opcodes": "PUSH1 0x80 PUSH1 0x40 MSTORE PUSH1 0x1 PUSH1 0x2 SSTORE PUSH1 0x40 MLOAD DUP1 PUSH1 0x40 ADD PUSH1 0x40 MSTORE DUP1 PUSH1 0xC DUP2 MSTORE PUSH1 0x20 ADD PUSH32 0x68656C6C6F20776F726C64210000000000000000000000000000000000000000 DUP2 MSTORE POP PUSH1 0x3 SWAP1 DUP2 PUSH3 0x4F SWAP2 SWAP1 PUSH3 0x334 JUMP JUMPDEST POP PUSH1 0x3 PUSH1 0x7 SWAP1 DUP2 PUSH3 0x62 SWAP2 SWAP1 PUSH3 0x448 JUMP JUMPDEST POP PUSH1 0x5 PUSH1 0x0 CALLER PUSH20 0xFFFFFFFFFFFFFFFFFFFFFFFFFFFFFFFFFFFFFFFF AND PUSH20 0xFFFFFFFFFFFFFFFFFFFFFFFFFFFFFFFFFFFFFFFF AND DUP2 MSTORE PUSH1 0x20 ADD SWAP1 DUP2 MSTORE PUSH1 0x20 ADD PUSH1 0x0 KECCAK256 SLOAD PUSH1 0x8 SSTORE CALLVALUE DUP1 ISZERO PUSH3 0xB3 JUMPI PUSH1 0x0 DUP1 REVERT JUMPDEST POP PUSH3 0x549 JUMP JUMPDEST PUSH1 0x0 DUP2 MLOAD SWAP1 POP SWAP2 SWAP1 POP JUMP JUMPDEST PUSH32 0x4E487B7100000000000000000000000000000000000000000000000000000000 PUSH1 0x0 MSTORE PUSH1 0x41 PUSH1 0x4 MSTORE PUSH1 0x24 PUSH1 0x0 REVERT JUMPDEST PUSH32 0x4E487B7100000000000000000000000000000000000000000000000000000000 PUSH1 0x0 MSTORE PUSH1 0x22 PUSH1 0x4 MSTORE PUSH1 0x24 PUSH1 0x0 REVERT JUMPDEST PUSH1 0x0 PUSH1 0x2 DUP3 DIV SWAP1 POP PUSH1 0x1 DUP3 AND DUP1 PUSH3 0x13C JUMPI PUSH1 0x7F DUP3 AND SWAP2 POP JUMPDEST PUSH1 0x20 DUP3 LT DUP2 SUB PUSH3 0x152 JUMPI PUSH3 0x151 PUSH3 0xF4 JUMP JUMPDEST JUMPDEST POP SWAP2 SWAP1 POP JUMP JUMPDEST PUSH1 0x0 DUP2 SWAP1 POP DUP2 PUSH1 0x0 MSTORE PUSH1 0x20 PUSH1 0x0 KECCAK256 SWAP1 POP SWAP2 SWAP1 POP JUMP JUMPDEST PUSH1 0x0 PUSH1 0x20 PUSH1 0x1F DUP4 ADD DIV SWAP1 POP SWAP2 SWAP1 POP JUMP JUMPDEST PUSH1 0x0 DUP3 DUP3 SHL SWAP1 POP SWAP3 SWAP2 POP POP JUMP JUMPDEST PUSH1 0x0 PUSH1 0x8 DUP4 MUL PUSH3 0x1BC PUSH32 0xFFFFFFFFFFFFFFFFFFFFFFFFFFFFFFFFFFFFFFFFFFFFFFFFFFFFFFFFFFFFFFFF DUP3 PUSH3 0x17D JUMP JUMPDEST PUSH3 0x1C8 DUP7 DUP4 PUSH3 0x17D JUMP JUMPDEST SWAP6 POP DUP1 NOT DUP5 AND SWAP4 POP DUP1 DUP7 AND DUP5 OR SWAP3 POP POP POP SWAP4 SWAP3 POP POP POP JUMP JUMPDEST PUSH1 0x0 DUP2 SWAP1 POP SWAP2 SWAP1 POP JUMP JUMPDEST PUSH1 0x0 DUP2 SWAP1 POP SWAP2 SWAP1 POP JUMP JUMPDEST PUSH1 0x0 PUSH3 0x215 PUSH3 0x20F PUSH3 0x209 DUP5 PUSH3 0x1E0 JUMP JUMPDEST PUSH3 0x1EA JUMP JUMPDEST PUSH3 0x1E0 JUMP JUMPDEST SWAP1 POP SWAP2 SWAP1 POP JUMP JUMPDEST PUSH1 0x0 DUP2 SWAP1 POP SWAP2 SWAP1 POP JUMP JUMPDEST PUSH3 0x231 DUP4 PUSH3 0x1F4 JUMP JUMPDEST PUSH3 0x249 PUSH3 0x240 DUP3 PUSH3 0x21C JUMP JUMPDEST DUP5 DUP5 SLOAD PUSH3 0x18A JUMP JUMPDEST DUP3 SSTORE POP POP POP POP JUMP JUMPDEST PUSH1 0x0 SWAP1 JUMP JUMPDEST PUSH3 0x260 PUSH3 0x251 JUMP JUMPDEST PUSH3 0x26D DUP2 DUP5 DUP5 PUSH3 0x226 JUMP JUMPDEST POP POP POP JUMP JUMPDEST JUMPDEST DUP2 DUP2 LT ISZERO PUSH3 0x295 JUMPI PUSH3 0x289 PUSH1 0x0 DUP3 PUSH3 0x256 JUMP JUMPDEST PUSH1 0x1 DUP2 ADD SWAP1 POP PUSH3 0x273 JUMP JUMPDEST POP POP JUMP JUMPDEST PUSH1 0x1F DUP3 GT ISZERO PUSH3 0x2E4 JUMPI PUSH3 0x2AE DUP2 PUSH3 0x158 JUMP JUMPDEST PUSH3 0x2B9 DUP5 PUSH3 0x16D JUMP JUMPDEST DUP2 ADD PUSH1 0x20 DUP6 LT ISZERO PUSH3 0x2C9 JUMPI DUP2 SWAP1 POP JUMPDEST PUSH3 0x2E1 PUSH3 0x2D8 DUP6 PUSH3 0x16D JUMP JUMPDEST DUP4 ADD DUP3 PUSH3 0x272 JUMP JUMPDEST POP POP JUMPDEST POP POP POP JUMP JUMPDEST PUSH1 0x0 DUP3 DUP3 SHR SWAP1 POP SWAP3 SWAP2 POP POP JUMP JUMPDEST PUSH1 0x0 PUSH3 0x309 PUSH1 0x0 NOT DUP5 PUSH1 0x8 MUL PUSH3 0x2E9 JUMP JUMPDEST NOT DUP1 DUP4 AND SWAP2 POP POP SWAP3 SWAP2 POP POP JUMP JUMPDEST PUSH1 0x0 PUSH3 0x324 DUP4 DUP4 PUSH3 0x2F6 JUMP JUMPDEST SWAP2 POP DUP3 PUSH1 0x2 MUL DUP3 OR SWAP1 POP SWAP3 SWAP2 POP POP JUMP JUMPDEST PUSH3 0x33F DUP3 PUSH3 0xBA JUMP JUMPDEST PUSH8 0xFFFFFFFFFFFFFFFF DUP2 GT ISZERO PUSH3 0x35B JUMPI PUSH3 0x35A PUSH3 0xC5 JUMP JUMPDEST JUMPDEST PUSH3 0x367 DUP3 SLOAD PUSH3 0x123 JUMP JUMPDEST PUSH3 0x374 DUP3 DUP3 DUP6 PUSH3 0x299 JUMP JUMPDEST PUSH1 0x0 PUSH1 0x20 SWAP1 POP PUSH1 0x1F DUP4 GT PUSH1 0x1 DUP2 EQ PUSH3 0x3AC JUMPI PUSH1 0x0 DUP5 ISZERO PUSH3 0x397 JUMPI DUP3 DUP8 ADD MLOAD SWAP1 POP JUMPDEST PUSH3 0x3A3 DUP6 DUP3 PUSH3 0x316 JUMP JUMPDEST DUP7 SSTORE POP PUSH3 0x413 JUMP JUMPDEST PUSH1 0x1F NOT DUP5 AND PUSH3 0x3BC DUP7 PUSH3 0x158 JUMP JUMPDEST PUSH1 0x0 JUMPDEST DUP3 DUP2 LT ISZERO PUSH3 0x3E6 JUMPI DUP5 DUP10 ADD MLOAD DUP3 SSTORE PUSH1 0x1 DUP3 ADD SWAP2 POP PUSH1 0x20 DUP6 ADD SWAP5 POP PUSH1 0x20 DUP2 ADD SWAP1 POP PUSH3 0x3BF JUMP JUMPDEST DUP7 DUP4 LT ISZERO PUSH3 0x406 JUMPI DUP5 DUP10 ADD MLOAD PUSH3 0x402 PUSH1 0x1F DUP10 AND DUP3 PUSH3 0x2F6 JUMP JUMPDEST DUP4 SSTORE POP JUMPDEST PUSH1 0x1 PUSH1 0x2 DUP9 MUL ADD DUP9 SSTORE POP POP POP JUMPDEST POP POP POP POP POP POP JUMP JUMPDEST PUSH1 0x0 DUP2 SLOAD SWAP1 POP PUSH3 0x42C DUP2 PUSH3 0x123 JUMP JUMPDEST SWAP1 POP SWAP2 SWAP1 POP JUMP JUMPDEST PUSH1 0x0 DUP2 SWAP1 POP DUP2 PUSH1 0x0 MSTORE PUSH1 0x20 PUSH1 0x0 KECCAK256 SWAP1 POP SWAP2 SWAP1 POP JUMP JUMPDEST DUP2 DUP2 SUB PUSH3 0x458 JUMPI POP POP PUSH3 0x547 JUMP JUMPDEST PUSH3 0x463 DUP3 PUSH3 0x41B JUMP JUMPDEST PUSH8 0xFFFFFFFFFFFFFFFF DUP2 GT ISZERO PUSH3 0x47F JUMPI PUSH3 0x47E PUSH3 0xC5 JUMP JUMPDEST JUMPDEST PUSH3 0x48B DUP3 SLOAD PUSH3 0x123 JUMP JUMPDEST PUSH3 0x498 DUP3 DUP3 DUP6 PUSH3 0x299 JUMP JUMPDEST PUSH1 0x0 PUSH1 0x1F DUP4 GT PUSH1 0x1 DUP2 EQ PUSH3 0x4CC JUMPI PUSH1 0x0 DUP5 ISZERO PUSH3 0x4B7 JUMPI DUP3 DUP8 ADD SLOAD SWAP1 POP JUMPDEST PUSH3 0x4C3 DUP6 DUP3 PUSH3 0x316 JUMP JUMPDEST DUP7 SSTORE POP PUSH3 0x540 JUMP JUMPDEST PUSH1 0x1F NOT DUP5 AND PUSH3 0x4DC DUP8 PUSH3 0x433 JUMP JUMPDEST SWAP7 POP PUSH3 0x4E9 DUP7 PUSH3 0x158 JUMP JUMPDEST PUSH1 0x0 JUMPDEST DUP3 DUP2 LT ISZERO PUSH3 0x513 JUMPI DUP5 DUP10 ADD SLOAD DUP3 SSTORE PUSH1 0x1 DUP3 ADD SWAP2 POP PUSH1 0x1 DUP6 ADD SWAP5 POP PUSH1 0x20 DUP2 ADD SWAP1 POP PUSH3 0x4EC JUMP JUMPDEST DUP7 DUP4 LT ISZERO PUSH3 0x533 JUMPI DUP5 DUP10 ADD SLOAD PUSH3 0x52F PUSH1 0x1F DUP10 AND DUP3 PUSH3 0x2F6 JUMP JUMPDEST DUP4 SSTORE POP JUMPDEST PUSH1 0x1 PUSH1 0x2 DUP9 MUL ADD DUP9 SSTORE POP POP POP JUMPDEST POP POP POP POP POP POP JUMPDEST JUMP JUMPDEST PUSH2 0x4B4 DUP1 PUSH3 0x559 PUSH1 0x0 CODECOPY PUSH1 0x0 RETURN INVALID PUSH1 0x80 PUSH1 0x40 MSTORE CALLVALUE DUP1 ISZERO PUSH2 0x10 JUMPI PUSH1 0x0 DUP1 REVERT JUMPDEST POP PUSH1 0x4 CALLDATASIZE LT PUSH2 0x57 JUMPI PUSH1 0x0 CALLDATALOAD PUSH1 0xE0 SHR DUP1 PUSH4 0x2CE2274 EQ PUSH2 0x5C JUMPI DUP1 PUSH4 0xDBE671F EQ PUSH2 0x7A JUMPI DUP1 PUSH4 0x609BCD5A EQ PUSH2 0x98 JUMPI DUP1 PUSH4 0xBB7B6E62 EQ PUSH2 0xB7 JUMPI DUP1 PUSH4 0xD68F359E EQ PUSH2 0xC1 JUMPI JUMPDEST PUSH1 0x0 DUP1 REVERT JUMPDEST PUSH2 0x64 PUSH2 0xDF JUMP JUMPDEST PUSH1 0x40 MLOAD PUSH2 0x71 SWAP2 SWAP1 PUSH2 0x31A JUMP JUMPDEST PUSH1 0x40 MLOAD DUP1 SWAP2 SUB SWAP1 RETURN JUMPDEST PUSH2 0x82 PUSH2 0x16D JUMP JUMPDEST PUSH1 0x40 MLOAD PUSH2 0x8F SWAP2 SWAP1 PUSH2 0x355 JUMP JUMPDEST PUSH1 0x40 MLOAD DUP1 SWAP2 SUB SWAP1 RETURN JUMPDEST PUSH2 0xA0 PUSH2 0x173 JUMP JUMPDEST PUSH1 0x40 MLOAD PUSH2 0xAE SWAP3 SWAP2 SWAP1 PUSH2 0x389 JUMP JUMPDEST PUSH1 0x40 MLOAD DUP1 SWAP2 SUB SWAP1 RETURN JUMPDEST PUSH2 0xBF PUSH2 0x185 JUMP JUMPDEST STOP JUMPDEST PUSH2 0xC9 PUSH2 0x284 JUMP JUMPDEST PUSH1 0x40 MLOAD PUSH2 0xD6 SWAP2 SWAP1 PUSH2 0x355 JUMP JUMPDEST PUSH1 0x40 MLOAD DUP1 SWAP2 SUB SWAP1 RETURN JUMPDEST PUSH1 0x3 DUP1 SLOAD PUSH2 0xEC SWAP1 PUSH2 0x3E1 JUMP JUMPDEST DUP1 PUSH1 0x1F ADD PUSH1 0x20 DUP1 SWAP2 DIV MUL PUSH1 0x20 ADD PUSH1 0x40 MLOAD SWAP1 DUP2 ADD PUSH1 0x40 MSTORE DUP1 SWAP3 SWAP2 SWAP1 DUP2 DUP2 MSTORE PUSH1 0x20 ADD DUP3 DUP1 SLOAD PUSH2 0x118 SWAP1 PUSH2 0x3E1 JUMP JUMPDEST DUP1 ISZERO PUSH2 0x165 JUMPI DUP1 PUSH1 0x1F LT PUSH2 0x13A JUMPI PUSH2 0x100 DUP1 DUP4 SLOAD DIV MUL DUP4 MSTORE SWAP2 PUSH1 0x20 ADD SWAP2 PUSH2 0x165 JUMP JUMPDEST DUP3 ADD SWAP2 SWAP1 PUSH1 0x0 MSTORE PUSH1 0x20 PUSH1 0x0 KECCAK256 SWAP1 JUMPDEST DUP2 SLOAD DUP2 MSTORE SWAP1 PUSH1 0x1 ADD SWAP1 PUSH1 0x20 ADD DUP1 DUP4 GT PUSH2 0x148 JUMPI DUP3 SWAP1 SUB PUSH1 0x1F AND DUP3 ADD SWAP2 JUMPDEST POP POP POP POP POP DUP2 JUMP JUMPDEST PUSH1 0x2 SLOAD DUP2 JUMP JUMPDEST PUSH1 0x0 DUP1 PUSH1 0x0 ADD SLOAD SWAP1 DUP1 PUSH1 0x1 ADD SLOAD SWAP1 POP DUP3 JUMP JUMPDEST PUSH1 0x3 PUSH1 0x5 PUSH1 0x0 CALLER PUSH20 0xFFFFFFFFFFFFFFFFFFFFFFFFFFFFFFFFFFFFFFFF AND PUSH20 0xFFFFFFFFFFFFFFFFFFFFFFFFFFFFFFFFFFFFFFFF AND DUP2 MSTORE PUSH1 0x20 ADD SWAP1 DUP2 MSTORE PUSH1 0x20 ADD PUSH1 0x0 KECCAK256 DUP2 SWAP1 SSTORE POP PUSH1 0x1 PUSH1 0x4 PUSH1 0x0 PUSH1 0x1 DUP2 MSTORE PUSH1 0x20 ADD SWAP1 DUP2 MSTORE PUSH1 0x20 ADD PUSH1 0x0 KECCAK256 DUP2 SWAP1 SSTORE POP PUSH2 0x14D PUSH1 0x4 PUSH1 0x0 PUSH1 0x2 DUP2 MSTORE PUSH1 0x20 ADD SWAP1 DUP2 MSTORE PUSH1 0x20 ADD PUSH1 0x0 KECCAK256 DUP2 SWAP1 SSTORE POP PUSH1 0x2 PUSH1 0x5 PUSH1 0x0 CALLER PUSH20 0xFFFFFFFFFFFFFFFFFFFFFFFFFFFFFFFFFFFFFFFF AND PUSH20 0xFFFFFFFFFFFFFFFFFFFFFFFFFFFFFFFFFFFFFFFF AND DUP2 MSTORE PUSH1 0x20 ADD SWAP1 DUP2 MSTORE PUSH1 0x20 ADD PUSH1 0x0 KECCAK256 SLOAD LT ISZERO PUSH2 0x282 JUMPI PUSH1 0x40 MLOAD PUSH32 0x8C379A000000000000000000000000000000000000000000000000000000000 DUP2 MSTORE PUSH1 0x4 ADD PUSH2 0x279 SWAP1 PUSH2 0x45E JUMP JUMPDEST PUSH1 0x40 MLOAD DUP1 SWAP2 SUB SWAP1 REVERT JUMPDEST JUMP JUMPDEST PUSH1 0x8 SLOAD DUP2 JUMP JUMPDEST PUSH1 0x0 DUP2 MLOAD SWAP1 POP SWAP2 SWAP1 POP JUMP JUMPDEST PUSH1 0x0 DUP3 DUP3 MSTORE PUSH1 0x20 DUP3 ADD SWAP1 POP SWAP3 SWAP2 POP POP JUMP JUMPDEST PUSH1 0x0 JUMPDEST DUP4 DUP2 LT ISZERO PUSH2 0x2C4 JUMPI DUP1 DUP3 ADD MLOAD DUP2 DUP5 ADD MSTORE PUSH1 0x20 DUP2 ADD SWAP1 POP PUSH2 0x2A9 JUMP JUMPDEST PUSH1 0x0 DUP5 DUP5 ADD MSTORE POP POP POP POP JUMP JUMPDEST PUSH1 0x0 PUSH1 0x1F NOT PUSH1 0x1F DUP4 ADD AND SWAP1 POP SWAP2 SWAP1 POP JUMP JUMPDEST PUSH1 0x0 PUSH2 0x2EC DUP3 PUSH2 0x28A JUMP JUMPDEST PUSH2 0x2F6 DUP2 DUP6 PUSH2 0x295 JUMP JUMPDEST SWAP4 POP PUSH2 0x306 DUP2 DUP6 PUSH1 0x20 DUP7 ADD PUSH2 0x2A6 JUMP JUMPDEST PUSH2 0x30F DUP2 PUSH2 0x2D0 JUMP JUMPDEST DUP5 ADD SWAP2 POP POP SWAP3 SWAP2 POP POP JUMP JUMPDEST PUSH1 0x0 PUSH1 0x20 DUP3 ADD SWAP1 POP DUP2 DUP2 SUB PUSH1 0x0 DUP4 ADD MSTORE PUSH2 0x334 DUP2 DUP5 PUSH2 0x2E1 JUMP JUMPDEST SWAP1 POP SWAP3 SWAP2 POP POP JUMP JUMPDEST PUSH1 0x0 DUP2 SWAP1 POP SWAP2 SWAP1 POP JUMP JUMPDEST PUSH2 0x34F DUP2 PUSH2 0x33C JUMP JUMPDEST DUP3 MSTORE POP POP JUMP JUMPDEST PUSH1 0x0 PUSH1 0x20 DUP3 ADD SWAP1 POP PUSH2 0x36A PUSH1 0x0 DUP4 ADD DUP5 PUSH2 0x346 JUMP JUMPDEST SWAP3 SWAP2 POP POP JUMP JUMPDEST PUSH1 0x0 DUP2 SWAP1 POP SWAP2 SWAP1 POP JUMP JUMPDEST PUSH2 0x383 DUP2 PUSH2 0x370 JUMP JUMPDEST DUP3 MSTORE POP POP JUMP JUMPDEST PUSH1 0x0 PUSH1 0x40 DUP3 ADD SWAP1 POP PUSH2 0x39E PUSH1 0x0 DUP4 ADD DUP6 PUSH2 0x346 JUMP JUMPDEST PUSH2 0x3AB PUSH1 0x20 DUP4 ADD DUP5 PUSH2 0x37A JUMP JUMPDEST SWAP4 SWAP3 POP POP POP JUMP JUMPDEST PUSH32 0x4E487B7100000000000000000000000000000000000000000000000000000000 PUSH1 0x0 MSTORE PUSH1 0x22 PUSH1 0x4 MSTORE PUSH1 0x24 PUSH1 0x0 REVERT JUMPDEST PUSH1 0x0 PUSH1 0x2 DUP3 DIV SWAP1 POP PUSH1 0x1 DUP3 AND DUP1 PUSH2 0x3F9 JUMPI PUSH1 0x7F DUP3 AND SWAP2 POP JUMPDEST PUSH1 0x20 DUP3 LT DUP2 SUB PUSH2 0x40C JUMPI PUSH2 0x40B PUSH2 0x3B2 JUMP JUMPDEST JUMPDEST POP SWAP2 SWAP1 POP JUMP JUMPDEST PUSH32 0x776F772C207468697320697320617765736F6D65210000000000000000000000 PUSH1 0x0 DUP3 ADD MSTORE POP JUMP JUMPDEST PUSH1 0x0 PUSH2 0x448 PUSH1 0x15 DUP4 PUSH2 0x295 JUMP JUMPDEST SWAP2 POP PUSH2 0x453 DUP3 PUSH2 0x412 JUMP JUMPDEST PUSH1 0x20 DUP3 ADD SWAP1 POP SWAP2 SWAP1 POP JUMP JUMPDEST PUSH1 0x0 PUSH1 0x20 DUP3 ADD SWAP1 POP DUP2 DUP2 SUB PUSH1 0x0 DUP4 ADD MSTORE PUSH2 0x477 DUP2 PUSH2 0x43B JUMP JUMPDEST SWAP1 POP SWAP2 SWAP1 POP JUMP INVALID LOG2 PUSH5 0x6970667358 0x22 SLT KECCAK256 DUP9 0xAD 0x28 0x2F 0xD6 PUSH18 0x74034BE3495D05ADE0056513DAF353CB4D2B PUSH19 0xA4760EC19413E564736F6C6343000812003300 "
		},
		"gasEstimates": {
			"creation": {
				"codeDepositCost": "240800",
				"executionCost": "infinite",
				"totalCost": "infinite"
			},
			"external": {
				"a()": "2429",
				"qq()": "4677",
				"solve1()": "69279",
				"st1()": "infinite",
				"wetwer()": "2495"
			}
		},
		"methodIdentifiers": {
			"a()": "0dbe671f",
			"qq()": "609bcd5a",
			"solve1()": "bb7b6e62",
			"st1()": "02ce2274",
			"wetwer()": "d68f359e"
		}
	},
	"abi": [
		{
			"inputs": [],
			"name": "a",
			"outputs": [
				{
					"internalType": "uint256",
					"name": "",
					"type": "uint256"
				}
			],
			"stateMutability": "view",
			"type": "function"
		},
		{
			"inputs": [],
			"name": "qq",
			"outputs": [
				{
					"internalType": "uint256",
					"name": "number",
					"type": "uint256"
				},
				{
					"internalType": "bytes32",
					"name": "a",
					"type": "bytes32"
				}
			],
			"stateMutability": "view",
			"type": "function"
		},
		{
			"inputs": [],
			"name": "solve1",
			"outputs": [],
			"stateMutability": "nonpayable",
			"type": "function"
		},
		{
			"inputs": [],
			"name": "st1",
			"outputs": [
				{
					"internalType": "string",
					"name": "",
					"type": "string"
				}
			],
			"stateMutability": "view",
			"type": "function"
		},
		{
			"inputs": [],
			"name": "wetwer",
			"outputs": [
				{
					"internalType": "uint256",
					"name": "",
					"type": "uint256"
				}
			],
			"stateMutability": "view",
			"type": "function"
		}
	]
}